:100000000C945D000C9485000C9485000C94850084
:100010000C9485000C9485000C9485000C9485004C
:100020000C9485000C9485000C9485000C9485003C
:100030000C9485000C9485000C9485000C9485002C
:100040000C9400030C9485000C9485000C9485009E
:100050000C9485000C9485000C9485000C9485000C
:100060000C9485000C94850000000008000201003B
:100070000003040700000000000000000000000072
:10008000250028002B0000000000240027002A0083
:10009000040404040404040402020202020203032E
:1000A0000303030301020408102040800102040836
:1000B0001020010204081020A30411241FBECFEF5A
:1000C000D8E0DEBFCDBF11E0A0E0B1E0EAE6FDE0A0
:1000D00002C005900D92A834B107D9F721E0A8E439
:1000E000B1E001C01D92A936B207E1F710E0CDE5FD
:1000F000D0E004C02197FE010E94AD06CC35D107A7
:10010000C9F70E944A030C94B3060C94000090E0D7
:10011000FC01EC55FF4F249180579F4FFC018491C7
:10012000882399F090E0880F991FFC01EA57FF4F50
:10013000A591B491FC01E458FF4F859194918FB73C
:10014000F894EC91E22BEC938FBF089590E0FC01C2
:10015000E859FF4F2491FC01EC55FF4F3491FC010D
:10016000E057FF4FE491EE23C9F0222339F023300A
:1001700001F1A8F4213019F1223029F1F0E0EE0F5D
:10018000FF1FE458FF4FA591B4918FB7F894EC91FD
:10019000611126C030953E233C938FBF08952730D0
:1001A000A9F02830C9F0243049F7809180008F7D74
:1001B00003C0809180008F7780938000DFCF84B56B
:1001C0008F7784BDDBCF84B58F7DFBCF8091B0006E
:1001D0008F778093B000D2CF8091B0008F7DF9CF20
:1001E0003E2BDACF8E3008F08E508770806480937B
:1001F0007C0080917A00806480937A0080917A00FC
:1002000086FDFCCF809178009091790008953FB7EA
:10021000F89480914D0190914E01A0914F01B091C1
:10022000500126B5A89B05C02F3F19F00196A11DCE
:10023000B11D3FBFBA2FA92F982F8827BC01CD0130
:10024000620F711D811D911D42E0660F771F881F8F
:10025000991F4A95D1F70895AF92BF92CF92DF923E
:10026000EF92FF920F931F93CF93DF936C017B016B
:100270008B01040F151FEB015E01AE18BF08C017FC
:10028000D10759F06991D601ED91FC910190F0816F
:10029000E02DC6010995892B79F7C501DF91CF9132
:1002A0001F910F91FF90EF90DF90CF90BF90AF9094
:1002B0000895089590E080E00895FC0101900020E9
:1002C000E9F73197AF01481B590BBC0181E591E07B
:1002D0000C942C018F929F92AF92BF920F931F9319
:1002E000CF93DF93CDB7DEB7A1970FB6F894DEBFFB
:1002F0000FBECDBF19A2423008F44AE08E010F5D57
:100300001F4F842E912CB12CA12CA50194010E9489
:100310008B06E62FB901CA01EA30F4F4E05DD8019A
:10032000EE938D01232B242B252B79F790E080E091
:10033000109719F0CD010E945D01A1960FB6F894B7
:10034000DEBF0FBECDBFDF91CF911F910F91BF9048
:10035000AF909F908F900895E95CE1CFCF93DF93AA
:10036000EC0160E08E810E94A60061E08E810E9417
:10037000A60060E08E810E94A6008BE891E00197C4
:10038000F1F7DF91CF910895CF92DF92EF92FF9234
:100390000F931F93CF93DF936C017C0187E0E80EEE
:1003A000F11CD0E0C0E0062F10E0B8010C2E02C016
:1003B000759567950A94E2F76170F70181917F0165
:1003C0000E94A6002196C430D10579F7C601DF91BD
:1003D000CF911F910F91FF90EF90DF90CF900C94F1
:1003E000AE01CF92DF92EF92FF920F931F93CF93C4
:1003F000DF93EC01F62E642F8C810E94A6008D8184
:100400008F3F19F060E00E94A6000F2D10E08F854D
:1004100084FF25C06E0187E0C80ED11CF12CE12CB1
:10042000B8010E2C02C0759567950A94E2F76170C9
:10043000F60181916F010E94A600FFEFEF1AFF0AFB
:1004400088E0E816F10461F7CE01DF91CF911F91AA
:100450000F91FF90EF90DF90CF900C94AE01B80118
:1004600084E0759567958A95E1F7CE010E94C401F5
:100470006F2DCE01DF91CF911F910F91FF90EF90E3
:10048000DF90CF900C94C40140E0682F81E591E0AB
:100490000C94F101CF93DF93823029F490916001A5
:1004A000986090936001809364011092650180E4EC
:1004B0008093660180E18093670180E58093680105
:1004C000809155010E948700809156018F3F11F065
:1004D0000E948700809157010E948700C1E5D1E00A
:1004E0009E01215531408091600184FD0AC084E065
:1004F00090E02196281739073CF48E810E948700EE
:10050000EFCF88E090E0F5CF8BE39DE00197F1F726
:1005100060E0809155010E94A60060E08091570143
:100520000E94A600809156018F3F19F060E00E9462
:10053000A6008091600184FD39C063E081E591E00F
:100540000E94C401CBE4D6E4CE010197F1F763E049
:1005500081E591E00E94C4012197F1F763E081E514
:1005600091E00E94C40183E592E00197F1F762E017
:1005700081E591E00E94C4018091600180620E9447
:10058000440284E0809361018CE00E94440281E097
:100590000E9444028BE39FE10197F1F782E0809390
:1005A000620186E0DF91CF910C94440280620E9448
:1005B00044028BE496E40197F1F780916001806238
:1005C0000E94440283E592E00197F1F78091600177
:1005D00080620E944402D0CF90916401891710F08C
:1005E0008FEF890FE82FF0E0EF5AFE4F8489806883
:1005F0000C94440241E00E94F10181E090E00895F2
:100600001F920F920FB60F9211242F933F938F9347
:100610009F93AF93BF938091490190914A01A0911C
:100620004B01B0914C013091480123E0230F2D374D
:1006300058F50196A11DB11D2093480180934901F1
:1006400090934A01A0934B01B0934C0180914D01CE
:1006500090914E01A0914F01B09150010196A11DC2
:10066000B11D80934D0190934E01A0934F01B09323
:100670005001BF91AF919F918F913F912F910F901A
:100680000FBE0F901F90189526E8230F0296A11D0C
:10069000B11DD2CF789484B5826084BD84B5816069
:1006A00084BD85B5826085BD85B5816085BD80913D
:1006B0006E00816080936E001092810080918100B5
:1006C00082608093810080918100816080938100AD
:1006D000809180008160809380008091B10084606F
:1006E0008093B1008091B00081608093B0008091D0
:1006F0007A00846080937A0080917A00826080938F
:100700007A0080917A00816080937A0080917A00EB
:10071000806880937A001092C10082E00E944A02B1
:1007200080E00E94EC028CE091E00E945D0181E09B
:100730000E94EC028DE191E00E945D010E940701A0
:100740004B015C0188EEC82E83E0D82EE12CF12C01
:100750000E940701681979098A099B09683E73405C
:1007600081059105A8F321E0C21AD108E108F1083A
:1007700088EE880E83E0981EA11CB11CC114D10420
:10078000E104F10429F781E00E9444028BE39FE138
:100790000197F1F7C0E0D0E08EE00E94F2008EE019
:1007A0000E94F200BC01990F880B990B0E9464050E
:1007B00020E030E040EA5BE30E94190620E030E0F0
:1007C00048EC52E40E9419066B017C014B015C016C
:1007D00080E00E94EC028CE291E00E945D0181E0E9
:1007E0000E94EC02A7019601C701B6010E9486068D
:1007F000882399F08AE391E00E945D0141E06FED6A
:1008000081E591E00E94F10186E491E00E945D01A2
:10081000209711F20E940000BFCF26013701E89413
:1008200077F82FEF3FEF4FE75FE7C301B2010E9478
:10083000860681110DC02FEF3FEF4FE75FE7C30141
:10084000B2010E942E0518161CF48EE391E0D4CF5D
:100850002FEF3FEF4FE75FE4C701B6010E94140698
:1008600018161CF482E491E0C7CF2FEF3FEF4FE75B
:100870005FECC701B6010E942E0587FDF3CF20E093
:1008800030E0A901C701B6010E942E0587FF0CC008
:1008900041E06DE281E591E00E94F10146015701DE
:1008A000B7FAB094B7F8B0942AE037ED43EA5BE3C7
:1008B000C501B4010E94C2044B015C010E943305D2
:1008C0006B017C010E9462059B01AC01C501B40172
:1008D0000E94C1044B015C014AE0C701B6010E94BD
:1008E0006A0141E06EE281E591E00E94F10120E0C1
:1008F00030E040E251E4C501B4010E9419064B0109
:100900005C010E9433056B01F12CE12C4AE0C70128
:10091000B6010E946A01C701B6010E9462059B01EF
:10092000AC01C501B4010E94C10420E030E040E206
:1009300051E40E9419060E94330590E080E04AE0ED
:100940000E946A015BCFE1E5F1E01382128284E04C
:1009500091E0918380838DE084838FEF85838CE0A9
:1009600086838BE087838AE0808789E0818788E0BF
:1009700082871386148615861686178681E00C9466
:100980004A025058BB27AA270E94D9040C94DA05C2
:100990000E94CC0538F00E94D30520F039F49F3F27
:1009A00019F426F40C94C9050EF4E095E7FB0C94B9
:1009B000C305E92F0E94EB0558F3BA1762077307C6
:1009C0008407950720F079F4A6F50C940D060EF433
:1009D000E0950B2EBA2FA02D0B01B90190010C014F
:1009E000CA01A0011124FF27591B99F0593F50F467
:1009F000503E68F11A16F040A22F232F342F4427BF
:100A0000585FF3CF469537952795A795F0405395B6
:100A1000C9F77EF41F16BA0B620B730B840BBAF086
:100A20009150A1F0FF0FBB1F661F771F881FC2F7F1
:100A30000EC0BA0F621F731F841F48F48795779505
:100A40006795B795F7959E3F08F0B0CF9395880FBF
:100A500008F09927EE0F9795879508950E949F05B6
:100A600008F481E008950E94F30588F09F5798F0FC
:100A7000B92F9927B751B0F0E1F0660F771F881FA3
:100A8000991F1AF0BA95C9F714C0B13091F00E94BD
:100A90000D06B1E008950C940D06672F782F882776
:100AA000B85F39F0B93FCCF3869577956795B395E4
:100AB000D9F73EF490958095709561957F4F8F4F53
:100AC0009F4F0895E89409C097FB3EF49095809558
:100AD000709561957F4F8F4F9F4F9923A9F0F92F04
:100AE00096E9BB279395F695879577956795B79582
:100AF000F111F8CFFAF4BB0F11F460FF1BC06F5F68
:100B00007F4F8F4F9F4F16C0882311F096E911C079
:100B1000772321F09EE8872F762F05C0662371F09A
:100B200096E8862F70E060E02AF09A95660F771FAE
:100B3000881FDAF7880F9695879597F90895990F8A
:100B40000008550FAA0BE0E8FEEF16161706E80797
:100B5000F907C0F012161306E407F50798F0621BB8
:100B6000730B840B950B39F40A2661F0232B242B8D
:100B7000252B21F408950A2609F4A140A6958FEFAC
:100B8000811D811D089597F99F6780E870E060E0FE
:100B900008959FEF80EC089500240A941616170616
:100BA00018060906089500240A941216130614065E
:100BB00005060895092E0394000C11F4882352F0C1
:100BC000BB0F40F4BF2B11F460FF04C06F5F7F4F79
:100BD0008F4F9F4F089557FD9058440F551F59F060
:100BE0005F3F71F04795880F97FB991F61F09F3F1A
:100BF00079F087950895121613061406551FF2CF43
:100C00004695F1DF08C0161617061806991FF1CF92
:100C100086957105610508940895E894BB276627B9
:100C20007727CB0197F908950E949F0508F48FEF6D
:100C300008950E942C060C94DA050E94CC0538F029
:100C40000E94D30520F0952311F00C94C3050C9459
:100C5000C90511240C940E060E94EB0570F3959FB4
:100C6000C1F3950F50E0551F629FF001729FBB27A3
:100C7000F00DB11D639FAA27F00DB11DAA1F649F3F
:100C80006627B00DA11D661F829F2227B00DA11DF2
:100C9000621F739FB00DA11D621F839FA00D611D78
:100CA000221F749F3327A00D611D231F849F600D99
:100CB000211D822F762F6A2F11249F5750409AF0C2
:100CC000F1F088234AF0EE0FFF1FBB1F661F771F4E
:100CD000881F91505040A9F79E3F510580F00C9419
:100CE000C3050C940E065F3FE4F3983ED4F386955B
:100CF00077956795B795F795E7959F5FC1F7FE2BB9
:100D0000880F911D9695879597F908950E949F05E4
:100D1000880B990B0895A1E21A2EAA1BBB1BFD019B
:100D20000DC0AA1FBB1FEE1FFF1FA217B307E407CA
:100D3000F50720F0A21BB30BE40BF50B661F771F22
:100D4000881F991F1A9469F7609570958095909502
:100D50009B01AC01BD01CF010895EE0FFF1F05906F
:0A0D6000F491E02D0994F894FFCF00
:100D6A0000000000FA022C015A01590143454B20A8
:100D7A0053554855205255414E47414E0054554E01
:100D8A00474755203120444554494B00535548554F
:100D9A00205255414E47414E3A006E616E00696ECF
:080DAA0066006F76660043004D
:00000001FF
